:100000000C9462000C948A000C948A000C948A0070
:100010000C948A000C948A000C948A000C948A0038
:100020000C948A000C948A000C948A000C948A0028
:100030000C948A000C948A000C948A000C948A0018
:100040000C942A030C948A000C94F8020C94D202AB
:100050000C948A000C948A000C948A000C948A00F8
:100060000C948A000C948A000000000025002800EF
:100070002B0000000000240027002A0000000000E0
:1000800023002600290004040404040404040202DA
:100090000202020203030303030301020408102007
:1000A0004080010204081020010204081020000012
:1000B0000008000201000003040700000000000027
:1000C0000000650411241FBECFEFD8E0DEBFCDBF16
:1000D00011E0A0E0B1E0E8E7F9E002C005900D9280
:1000E000AA31B107D9F721E0AAE1B1E001C01D9220
:1000F000A03CB207E1F710E0C2E6D0E004C02197CF
:10010000FE010E94B404C136D107C9F70E947403EE
:100110000C94BA040C940000AF92BF92CF92DF927D
:10012000EF92FF920F931F93CF93DF936C017B01AC
:100130008B01040F151FEB015E01AE18BF08C0173D
:10014000D10759F06991D601ED91FC910190F081B0
:10015000E02DC6010995892B79F7C501DF91CF9173
:100160001F910F91FF90EF90DF90CF90BF90AF90D5
:100170000895FC01538D448D252F30E0842F90E0AD
:10018000821B930B541710F0CF9608950197089592
:10019000FC01918D828D981761F0A28DAE0FBF2F5B
:1001A000B11D5D968C91928D9F5F9F73928F90E0B1
:1001B00008958FEF9FEF0895FC01918D828D981720
:1001C00031F0828DE80FF11D858D90E008958FEF5D
:1001D0009FEF0895FC01918D228D892F90E0805C26
:1001E0009F4F821B91098F739927089583E291E0B5
:1001F0000E94EA0021E0892B09F420E0822F089573
:1002000080E090E0892B29F00E94F60081110C9487
:1002100000000895FC01A48DA80FB92FB11DA35AA9
:10022000BF4F2C91848D90E001968F739927848F16
:10023000A689B7892C93A089B1898C918370806439
:100240008C93938D848D981306C00288F389E02DDA
:1002500080818F7D80830895EF92FF920F931F938B
:10026000CF93DF93EC0181E0888F9B8D8C8D981369
:100270001AC0E889F989808185FF15C09FB7F89475
:10028000EE89FF896083E889F989808183708064C1
:1002900080839FBF81E090E0DF91CF911F910F910C
:1002A000FF90EF900895F62E0B8D10E00F5F1F4F1B
:1002B0000F731127E02E8C8D8E110CC00FB607FC2A
:1002C000FACFE889F989808185FFF5CFCE010E94B8
:1002D0000A01F1CFEB8DEC0FFD2FF11DE35AFF4F1B
:1002E000F0829FB7F8940B8FEA89FB898081806246
:1002F000CFCFCF93DF93EC01888D8823B9F0AA8903
:10030000BB89E889F9898C9185FD03C0808186FDD0
:100310000DC00FB607FCF7CF8C9185FFF2CF80811F
:1003200085FFEDCFCE010E940A01E9CFDF91CF9189
:10033000089590E0FC01E255FF4F2491FC01E65640
:10034000FF4F3491FC01EA57FF4FE491EE23C1F1D6
:10035000222339F02330E9F090F4213001F12230EA
:1003600011F1F0E0EE0FFF1FE458FF4FA591B4919B
:10037000EC91E32381E090E029F580E008952730B7
:10038000A9F02830C9F0243061F7809180008F7D7A
:1003900003C0809180008F7780938000E2CF84B586
:1003A0008F7784BDDECF84B58F7DFBCF8091B00089
:1003B0008F778093B000D5CF8091B0008F7DF9CF3B
:1003C00080E090E00895CF93DF9390E0FC01E65643
:1003D000FF4F24918A579F4FFC0184918823D1F0CD
:1003E00090E0880F991FFC01EE58FF4FA591B49142
:1003F000FC01E859FF4FC591D491623071F49FB769
:10040000F8943C91822F809583238C93E8812E2B46
:1004100028839FBFDF91CF9108958FB7F894EC9117
:100420002E2B2C938FBFF6CF8E50806480937C0050
:1004300080917A00806480937A0080917A0086FDB2
:10044000FCCF809178009091790008953FB7F8949F
:1004500080911F0190912001A0912101B091220172
:1004600026B5A89B05C02F3F19F00196A11DB11D0F
:100470003FBFBA2FA92F982F8827BC01CD01620F4B
:10048000711D811D911D42E0660F771F881F991F06
:100490004A95D1F708958F929F92AF92BF92CF92D3
:1004A000DF92EF92FF920E9426024B015C0184EFE3
:1004B000C82EDD24D394E12CF12C0E942602681969
:1004C00079098A099B09683E734081059105A8F363
:1004D00021E0C21AD108E108F10888EE880E83E015
:1004E000981EA11CB11CC114D104E104F10429F728
:1004F000FF90EF90DF90CF90BF90AF909F908F9044
:100500000895FC0101900020E9F73197AF01481BE5
:10051000590BBC0183E291E00C948C008F929F9266
:10052000AF92BF920F931F93CF93DF93CDB7DEB7F8
:10053000A1970FB6F894DEBF0FBECDBF19A242300F
:1005400008F44AE08E010F5D1F4F842E912CB12CD0
:10055000A12CA50194010E949204E62FB901CA01C1
:10056000EA30F4F4E05DD801EE938D01232B242BC7
:10057000252B79F790E080E0109719F0CD010E94CB
:100580008102A1960FB6F894DEBF0FBECDBFDF91FA
:10059000CF911F910F91BF90AF909F908F90089532
:1005A000E95CE1CF1F920F920FB60F9211242F93A7
:1005B0003F934F935F936F937F938F939F93AF93EB
:1005C000BF93EF93FF9383E291E00E940A01FF91B2
:1005D000EF91BF91AF919F918F917F916F915F91BB
:1005E0004F913F912F910F900FBE0F901F90189534
:1005F0001F920F920FB60F9211242F938F939F93F8
:10060000EF93FF93E0913301F09134018081E09109
:100610003901F0913A0182FD1BC0908180913C012B
:100620008F5F8F7320913D01821741F0E0913C0173
:10063000F0E0ED5DFE4F958F80933C01FF91EF91CF
:100640009F918F912F910F900FBE0F901F90189533
:100650008081F4CF1F920F920FB60F9211242F9327
:100660003F938F939F93AF93BF9380911B01909182
:100670001C01A0911D01B0911E0130911A0123E0CF
:10068000230F2D3758F50196A11DB11D20931A0196
:1006900080931B0190931C01A0931D01B0931E0138
:1006A00080911F0190912001A0912101B091220120
:1006B0000196A11DB11D80931F0190932001A0936D
:1006C0002101B0932201BF91AF919F918F913F91F2
:1006D0002F910F900FBE0F901F90189526E8230FB3
:1006E0000296A11DB11DD2CF789484B5826084BDDD
:1006F00084B5816084BD85B5826085BD85B5816026
:1007000085BD80916E00816080936E0010928100A3
:10071000809181008260809381008091810081605E
:10072000809381008091800081608093800080911F
:10073000B10084608093B1008091B00081608093AB
:10074000B00080917A00846080937A0080917A0072
:10075000826080937A0080917A00816080937A0031
:1007600080917A00806880937A001092C10061E0E5
:100770008DE00E94E30162E082E00E94E30162E01A
:1007800083E00E94E301E0913301F091340182E0C3
:100790008083E0912F01F09130011082E0913101CE
:1007A000F09132018FEC808310923B01E091370190
:1007B000F091380186E08083E0913501F0913601B7
:1007C000808180618083E0913501F09136018081E4
:1007D00088608083E0913501F091360180818068E6
:1007E0008083E0913501F091360180818F7D808397
:1007F000C0E0D0E082E00E9499017C0183E00E9489
:1008000099018C01EF2851F58EE00E9414026C01D1
:1008100082E191E00E94810284E191E00E948102E4
:100820000D2C000CEE08FF084AE0C701B601F7FEE8
:100830000DC06DE283E291E00E942C0166277727CC
:10084000CB016C197D098E099F094AE00E948E0236
:1008500084E191E00E9481020E944B02012B51F53C
:100860008FE00E9414026C0187E191E00E948102F6
:1008700084E191E00E9481020D2C000CEE08FF083B
:100880004AE0C701B601F7FE0DC06DE283E291E0D8
:100890000E942C0166277727CB016C197D098E09F0
:1008A0009F094AE00E948E0284E191E00E94810249
:1008B0000E944B02209709F49DCF0E94F6008823E6
:1008C00009F498CF0E94000095CFE3E2F1E0138293
:1008D000128288EE93E0A0E0B0E084839583A68343
:1008E000B78384E091E09183808385EC90E09587E5
:1008F000848784EC90E09787868780EC90E0918BEA
:10090000808B81EC90E0938B828B82EC90E0958BD6
:10091000848B86EC90E0978B868B118E128E138ED3
:10092000148E0895A1E21A2EAA1BBB1BFD010DC057
:10093000AA1FBB1FEE1FFF1FA217B307E407F5078F
:1009400020F0A21BB30BE40BF50B661F771F881F6B
:10095000991F1A9469F760957095809590959B0101
:10096000AC01BD01CF010895EE0FFF1F0590F4917A
:08097000E02D0994F894FFCF7B
:10097800000000002C018C00B9007901EA00C800D1
:0A098800DC0041000D0A00420000EF
:00000001FF
